:020000040800F2
:10000000000002206DA404088D0E04087D0E040873
:10001000910E0408A10E0408B10E040800000000AF
:10002000000000000000000000000000C10E0408F5
:10003000C30E040800000000C50E0408C90E040821
:10004000B9A40408FD0F04080910040811100408DD
:100050008D0F0408B9A40408910F0408970F040831
:100060009D0F0408A30F0408A90F040859360408BB
:100070006936040879360408893604089936040874
:10008000A9360408B9360408B9A40408B9A40408B8
:10009000BB100408C3100408B9A40408AF0F040877
:1000A000251004082B1004083D100408B9A4040806
:1000B00043100408491004084F100408B9A40408A8
:1000C000B9A40408B9A40408B9A40408B9A404088C
:1000D000B9A40408971004089D100408A31004088C
:1000E000D30F040803100408150F0408791004083E
:1000F0007F10040891100408B9A40408C936040844
:10010000B9A40408BD8D040855100408B9A4040856
:10011000A9100408AF1004086D1004087310040837
:10012000D9360408E9360408F93604080937040802
:1001300019370408B9A40408B9A40408B9A4040828
:10014000CB100408D3100408B9A40408090F04084C
:10015000293704083937040849370408B51004085A
:10016000B9A40408B9A40408B9A40408B9A40408EB
:10017000B9A40408B9A40408B9A404080000000044
:10018000B9A40408B9A4040801380A44914204D06F
:1001900011F8013B00F8013FF8E770478369023925
:1001A000023B99423DBF8278C36A02FB01300020C6
:1001B000704700F10B010023DA0142EA530310F803
:1001C000012B52FA83F38842DBB2F5D1184670470F
:1001D00008B580B1036873B11A7862B1D988828892
:1001E000914208D158783CF059F810F0010F0CBF3B
:1001F0000020092008BD092008BD03692DE9F04150
:100200000D460931002B3AD0436900245E1E16F8D2
:10021000012F202A04F1010418D0052A56D0092CF8
:1002200002D12E270F700131A2F14107192F0BD8EF
:10023000082C1F7B8CBF4FF0100E4FF0080E1EEAEB
:10024000070F1CBF2032D2B20A7001310B2CDED155
:10025000DA7A2A729A7FDC7F120442EA04621C7FF7
:1002600022435C7F42EA04222A605C7E1A7E42EAD4
:100270000422AA80DA7D9B7D43EA0223EB800024DE
:100280000C70AE693EB303690BB900241AE0EB6948
:10029000002BFAD0028C4FF6FF739A42F5D0D0F8BB
:1002A0001C80771E38F8140060B100213FF056FB27
:1002B0000028EAD0EB69013B9C42E6D2013407F802
:1002C000010FEFE700233355BDE8F081092C4FF013
:1002D000E502B9D1A5E7BDE8F081CA7E8B7E03288F
:1002E00043EA022301BF487D0A7D42EA002243EA35
:1002F000024318467047F8B5056B00F13407044611
:10030000394640782A4601233CF004F8A0B9636AD4
:10031000E2692071EB1A934201D30020F8BDE67820
:10032000012EFAD9E36960781D4439462A46012333
:100330003BF0F0FF013EF3E70120F8BD03790BB17C
:10034000FFF7D9BF18467047F8B50446FFF7F6FF28
:100350000546002852D12378032B47D16679012E18
:1003600044D104F1340729464FF4007238463CF07A
:1003700058FA5523412284F83232AA2384F83332C2
:1003800084F83720522384F81A22226984F8343002
:1003900084F83530612384F8363084F81B32C2F398
:1003A000072384F81C2284F81D32130C120E84F8E3
:1003B0001F22E26884F81E32C2F3072384F8202249
:1003C00084F82132130C120E84F82322226A84F856
:1003D00022327221013284F8181284F81912226331
:1003E0006078394633463BF095FF657100216078AF
:1003F0000A463BF0BDFF051C18BF01252846F8BD85
:10040000036B994270B506460D4611D0FFF796FF73
:10041000044670B92A46707806F1340101233BF096
:100420004FFF00281CBF4FF0FF350124356300E06B
:100430000024204670BD0000002310B503714FF06A
:10044000FF3303630446FFF7DBFF80BB94F83322DE
:1004500094F8323243EA02234AF65522934228D1D5
:1004600094F86C3094F86D201B0443EA026394F80E
:100470006A20134394F86B2043EA02230E4A23F0C8
:100480007F43934216D094F8883094F889001B0477
:1004900043EA006094F88630034394F8870043EA07
:1004A000002020F07F40801A18BF012010BD0320DB
:1004B00010BD022010BD00BF46415400F0B500231E
:1004C000036085B00746084615463BF075FE061EDC
:1004D000C0F27481C04B53F82640002C00F07081AC
:1004E0003C60237883B160783BF0D8FEC2070BD420
:1004F000002D00F0678100F0040303F0FF00002BE3
:1005000000F068810A2065E1B44F002317F8160057
:10051000237060703BF098FEC30700F155810DB168
:100520004107EFD420460021FFF786FF012806D0BF
:10053000002840F04B8107EB46035D78ADB32146C0
:10054000002091F8F6316BB191F8FC3191F8FD2162
:100550001B0443EA026391F8FA21134391F8FB214B
:1005600043EA02234DF820300130042801F1100144
:10057000E7D107EB46067678374606B1771E5DF879
:10058000275035B120462946FFF756FF3EB910B92E
:100590000BE046B902200137032FF0D916E10328FA
:1005A00000F0178108B10D2014E194F8402094F870
:1005B0003F3043EA0223B3F5007FF4D194F84B00B7
:1005C00094F84A3053EA00200DD194F85A3094F848
:1005D0005B001B0443EA006394F85800034394F85B
:1005E000590043EA002094F84460E061731E012B37
:1005F000E670D8D894F84130A370002BD3D05A1E9F
:100600001A42D0D194F8452094F8467042EA072760
:100610003A072781C7D194F8481094F8472052EA46
:1006200001220DD194F8562094F85710120442EA92
:10063000016294F854100A4394F8551042EA0122DA
:1006400094F843E094F8421051EA0E21ABD006FB37
:1006500000FE01EB171CF4446245A4D3CCEB02026C
:10066000B2FBF3F3002B9ED040F6F572934206D90D
:100670004FF6F576B3428CBF0326022600E0012632
:100680006A1802330CEB0501032EA3612562626236
:10069000E16212D1002F86D194F8622094F86310A1
:1006A000120442EA016294F860100A4394F861105F
:1006B00042EA0122A2629B000EE0002F3FF473AFDA
:1006C0007244022EA2624FEA43021BBFD21803F00B
:1006D0000103134603EB520303F2FF13B0EB532F56
:1006E000FFF461AF4FF0FF332361E360032E4FF05F
:1006F0008003637158D194F8652094F8643043EA1C
:100700000223012B50D12046691CFFF779FE0028F7
:100710004AD194F8332294F83232607143EA0223CA
:100720004AF6552293423FD194F8363094F8372058
:100730001B0443EA026394F83420134394F83520F1
:1007400043EA0223264A93422ED194F81A3294F8AF
:100750001B221B0443EA026394F81822134394F803
:10076000192243EA02231F4A93421DD194F81E32F4
:1007700094F81F221B0443EA026394F81C221343DB
:1007800094F81D2243EA0223236194F8223294F85C
:1007900023221B0443EA026394F82022134394F8B3
:1007A000212243EA0223E3600F4A267013880133B3
:1007B0009BB200201380E38060610BE00B2009E016
:1007C0000C2007E0284605E0032003E003287FF41F
:1007D000EAAE012005B0F0BD540400209C310608AB
:1007E0005252614172724161520400200129F8B5F0
:1007F00006460C465DD9836999425AD20378022B8A
:1008000029D0032B3AD0012B53D101EB5105416A7A
:1008100001EB5521FFF7F4FD10B14FF0FF30F8BDAB
:100820006F1C716AC5F308053544304601EB57214A
:1008300095F83450FFF7E4FD0028EED1C7F3080720
:100840003E44E30796F8340045EA00204CBF000917
:10085000C0F30B00F8BD416A01EB1421FFF7D0FD96
:100860000028DAD1640004F4FF743319344493F897
:10087000343094F8350043EA0020F8BD416A01EBBA
:10088000D411FFF7BDFD0028C7D1A30003F4FE7407
:10089000331934339A78D8785B783444000640EAC8
:1008A000024040EA032094F83430184320F07040AE
:1008B000F8BD0120F8BDF8B584680546012C0E4648
:1008C000E98001D10220F8BD03689A699442F9D207
:1008D00054B91A78032A01D19A6A22B91A89964220
:1008E000F0D2986A17E014469F7821463F01BE4235
:1008F0000DD32868FFF77AFF431C01461AD0012860
:10090000E0D92B689B699842DCD2F61BEFE7286898
:100910000C46FFF743FCEC600028D3D02B6800EBBB
:10092000161006F00F0603EB4616343628616E618A
:100930000020F8BD0120F8BD01292DE9F04106464F
:100940000C46154671D9836999426ED20378022B01
:100950003AD0032B49D0012B67D101EB5107416AF3
:1009600001EB5721FFF74CFD00285FD107F101088B
:10097000C7F30807374414F0010418BF97F8342070
:10098000716AEBB21EBF02F00F0242EA0313DBB240
:1009900087F8343001233371304601EB5821FFF7DB
:1009A0002FFD002842D1C8F30803334414B1C5F326
:1009B000071506E093F83420C5F3032522F00F0253
:1009C000154383F834502CE0416A01EB1421FFF702
:1009D00017FD58BB640004F4FF74331983F83450D6
:1009E000C5F3072583F835501BE0416A01EBD411AC
:1009F000FFF706FDD0B9A40004F4FE74331993F890
:100A00003720120602F070421543C5F3072283F81F
:100A1000345083F835202A0C2D0E83F8362083F8C5
:100A2000375001233371BDE8F0810220BDE8F08129
:100A3000F8B505460F4631B9C66896B183699E423E
:100A400028BF01260EE0FFF7D1FE01283FD9441C44
:100A500002D14FF0FF30F8BDAB69984238D33E4623
:100A600000E001263446AB6901349C4204D3012ED8
:100A700001D80020F8BD022428462146FFF7B6FE23
:100A800030B1411C24D0012822D0B442EBD1F0E790
:100A9000284621466FF07042FFF74EFFA8B957B9BC
:100AA0002B69EC605A1C0ED0013B2B616B7943F033
:100AB00001036B7107E0284639462246FFF73CFFE9
:100AC0000028EDD001E02046F8BD0128C1D001206A
:100AD000F8BD2DE9F843C6880136B3B204460F4687
:100AE00013B90420BDE8F8830369002BF9D016F090
:100AF0000F0859D1C16801330361006819B903892E
:100B00009E42EED250E08378013B13EA16134BD19C
:100B1000FFF76CFE0128054602D80220BDE8F883E5
:100B2000421C02D10120BDE8F883206883699D4200
:100B300034D3002FD5D0E168FFF77AFF05460028AF
:100B40003BD00128E9D0431CECD02068FFF7F6FB2E
:100B500007460028E6D1206839464FF40072343049
:100B60003BF05FFED4F8009029464846FFF716FB9D
:100B7000C9F8300023689A7897420CD201221A7182
:100B80002068FFF7DBFB0028CCD12268136B013310
:100B900013630137EEE71A6BD71B1F63E56020680C
:100BA0002946FFF7FBFA20612368E68003EB481330
:100BB000343363610020BDE8F8830720BDE8F88383
:100BC00070B50E4600210446FFF775FEA8B905462C
:100BD00020682169FFF714FC78B963691B78E52B5D
:100BE00000D01BB90135B54201D170BD0546204684
:100BF0000121FFF76EFF0028EAD0042808BF072074
:100C000070BD00002DE9F843FF27054688463C46A5
:100C100004262969002968D02868FFF7F1FB0646F9
:100C2000002863D168690378002B65D0C27AE52B70
:100C300002F03F0250D022F02001A1F1080CDCF1BB
:100C4000000141EB0C01414546D10F2A3BD1590629
:100C500005D503F0BF04EB88477B2B8401E0A3425A
:100C60003AD1437BBB4237D10378EE6903F03F03AF
:100C7000013B0D2253434FF0010E0021214A11F890
:100C800002C000EB0C0292F8019010F80C2042EA2E
:100C90000922BEF1000F06D0FE2B1DD826F8132026
:100CA0009646013303E04FF6FF7C624514D10131D3
:100CB0000D29E3D1027852061BD5FE2B0CD8002259
:100CC00026F8132015E01CB9FFF773FA874215D0F8
:100CD0004FF6FF732B8411E0FF2428460021FFF715
:100CE000F8FE0646002894D000E03EB100232B61B8
:100CF00004E0013CE4B2F0E70426F7E73046BDE843
:100D0000F88300BF36DB050870B5018CC6884FF646
:100D1000FF73994208BF31460546FFF7CCFD0446F4
:100D2000E8B928682969FFF76BFB0446A0B92022BF
:100D3000686921463BF075FD6B69E5221A702B68E6
:100D400001221A71EB88B34209D221462846FFF7E7
:100D5000C0FE04460028E4D0042C08BF022420462C
:100D600070BD012970B504460D4601D8022070BD42
:100D700083699942FAD2A3699D4205D22046294649
:100D8000FFF734FD064608B9002070BD0128EDD0FC
:100D9000411C11D0204629460022FFF7CDFD60B945
:100DA00023695A1C1FBF01332361637943F0010398
:100DB00018BF63713546DEE7012070BD2DE9F74F9E
:100DC0004FF6FF734FF0FF0805460384444628683A
:100DD0002969FFF715FB0746002876D16E6933783D
:100DE000002B6DD0E52BF17A5ED0080701F03F02B1
:100DF00002D50F2A58D101E00F2A46D1D5F81C9010
:100E0000B9F1000F54D0590606D503F0BF04EB88A2
:100E100096F80D802B8401E0A34248D1737B4345B3
:100E200045D1377827F040077B1E0D275F434FF0F1
:100E3000000A0123274A1AF80220B118B25C487848
:100E400042EA002083B13EF0A5FDFE2F01902ED88E
:100E500039F817003EF09EFD019A824207F1010B1E
:100E6000034624D15F4603E04FF6FF7290421ED145
:100E70000AF1010ABAF10D0FDCD13278520621D500
:100E800003B339F81730EBB111E024B93046FFF75E
:100E900090F9804519D0A969CB7ADB0704D4304694
:100EA0000B223BF0E0FC80B14FF6FF732B84FF2454
:100EB00028460021FFF70DFE0746002887D004E0F2
:100EC000042702E0013CE4B2F2E7384603B0BDE893
:100ED000F08F00BF36DB05082DE9F0418469C66953
:100EE00086B021460C22054603A8FFF74DF99DF870
:100EF000172002F0200101F0FF03002940F0CD800F
:100F0000D20764D5E3720127EB61204603A90B22C7
:100F1000FFF73AF9052F15D9B01E3B4630F8022FDE
:100F20008AB1102102F0010E0EEB430313F4803F4F
:100F30001CBF83F4883383F0210301394FEA520246
:100F4000F0D1EBE73B46072203F00F0000F1300140
:100F5000392988BF00F13701013A06A810441B095E
:100F600000F8131CF0D106A810444FF07E0E114675
:100F700000F814EC934201D1234404E0E05C202803
:100F8000FAD00133F6E707299BBF06AA52182022A0
:100F900012F8142C03F8012BA3EB040298BF0131C3
:100FA000072AF0D928460021FFF785FC40B92846DA
:100FB000FFF704FF20B90137642FA6D1072088E08E
:100FC000042840F086809DF81730E372EE619DF8AA
:100FD00017309B0701D4012409E0002436F81430AF
:100FE0000BB10134FAE719340D23B4FBF3F42846AE
:100FF0002146FFF7E5FD00286BD1013C4FD0E98881
:101000002846091BFFF757FC002862D1A869FFF7A3
:10101000D0F8064628682969FFF7F2F9002858D168
:101020006B69D5F81CC05E730F22E1B20D27DA722E
:101030004A1E7A4318739876D87607464FF6FF7E95
:101040007045DFF894E018BF3CF8120017F80EE086
:1010500003F80E009E444FEA10288EF8018007F135
:1010600001074FF6FF7E18BF0132002808BF704607
:101070000D2FE3D1704502D03CF812200AB941F09F
:10108000400119702B6801221A7128460021FFF7D0
:1010900020FDF0B9013CBDD101E0062019E028682F
:1010A0002969FFF7ADF9044690B921462022686905
:1010B0003BF0B7FB0B226869A969FFF765F8AB69DC
:1010C0006A69DB7A03F0180313732B6801221A7123
:1010D000204606B0BDE8F08136DB05082DE9F74F64
:1010E0000B782F2B05460F4601D05C2B02D1013720
:1010F000002301E003685B69AB603B781F2B47D896
:1011000028460021FFF7D7FB00236B6135E15C2BFC
:101110003ED0D5F81C9004F1FF3AA9F10208002650
:101120001AF8010F1F2806F1010738D82028274494
:1011300034BF04240024012E4CD1B9F800302E2BEA
:101140004ED1002329F81630AA69B34234BF2E21AC
:101150002021D15401330B2BF6D1AB6944F020048C
:10116000DC7228460021FFF7A6FB10B92846FFF7DE
:1011700025FEAB69DB7AB0B3042840F0FE8013F0A3
:10118000200F03F0040332D00022AA606A6163BB1F
:101190003B782F2B3C4607F10107B8D1F8E72F2801
:1011A000C4D05C28C2D0B7F5807F00F0D680012182
:1011B0003EF0D4FB002800F0D0807F2806D8704A8B
:1011C00012F8013F13B18342FAD1C6E028F8020FAA
:1011D0003E46A5E7022E03D1B9F802302E2BACD043
:1011E00009EB460319E05A0706D50020C5E0002B9D
:1011F00014BF04200520C0E06969CB7ADB0605D561
:101200002B681878FFF769F8A860C1E70520B4E0FB
:1012100033F8022D202A03D1013E002EF8D19CE0A4
:101220002E2AF9D04FF0000829F81680A86920214D
:101230000B223BF0F6FA09EB460A434639F8132035
:10124000202A01D10133F9E72E2AFBD00BB144F05B
:101250000304524632F8021D2E2901D0013EF9D175
:101260004FF0000B4FF0080AD84639F813005A1C0B
:1012700000284CD0202803D02E2805D1B2426ED0B1
:1012800044F003041346F0E7D34502D2B24218D12A
:1012900065E0BAF10B0F05D144F0030443464FF06B
:1012A0000B0A35E0B24202D044F003042FD84FEAD3
:1012B00088085FFA88F832464FF00B0A4FF0080BA7
:1012C000E0E77F280CD9002101923EF047FB019A0C
:1012D00018B12C4B184410F8800C44F0020428B1CB
:1012E000294911F8013F2BB18342FAD144F003049C
:1012F0005F2006E0A0F141039BB2192B33D848F0E0
:101300000208AB6903F80B000BF1010BBAE7434687
:10131000AA691178E52904BF05211170BAF1080FF7
:1013200004BF4FEA88085FFA88F303F00C020C2A26
:1013300003D003F00301032901D144F00204A10703
:1013400009D403F00303012B08BF44F01004042A5E
:1013500008BF44F00804AB6902E706200DE0BAF1CB
:101360000B0FA4D198E7A0F161039BB2192B9EBF8C
:10137000203848F0010880B2C3E703B0BDE8F08F21
:1013800061DA0508B6DA05086ADA05081FB50190C2
:1013900004A8009140F8041D14463AF00DFF011E08
:1013A00014DB0D4B53F8210008B1002202700198A4
:1013B00008B10022027043F8210050B1012C07D17E
:1013C00001A869460022FFF779F802E00B2000E04F
:1013D000002004B010BD00BF540400202DE9F043EC
:1013E0008FB0144601910646002800F0918000233A
:1013F000036001A905A802F01E02FFF75FF80028AC
:1014000040F08D8002AB0B9305A8464B01990C93DD
:10141000FFF764FE0A9D10B9002D08BF062014F0E6
:101420001C0F04F01F0742D048B1042802D105A8C0
:10143000FFF752FD47F008070A9D30B16FE0EB7AE5
:1014400013F0110F6AD1630764D43C0738D547F015
:10145000DBFCC0F307230024A873EB73DDF81480D2
:10146000EC72030C000E2B742C776C77AC77EC7756
:10147000687498F800002946FEF72FFF0123AC7628
:10148000EC762C756C7588F804300446C0B1404683
:101490002146D8F83090FFF764FC00283FD105982A
:1014A000013CC4604946FEF7ABFF48B137E0002875
:1014B00035D1EB7AD8062FD4A10701D5DA072DD480
:1014C000DDF814803B074FF00004D8F83030F361AA
:1014D00048BF47F020073562B771F47198F80000F3
:1014E0002946FEF7FAFE3061AB7FEA7F1B0443EA30
:1014F00002632A7F13436A7FB46043EA0223F360E6
:10150000B8F80630B461C6F80080B380204606E023
:10151000092004E0082002E0042000E007200FB0CA
:10152000BDE8F083520200202DE9F84F99460023D0
:10153000C9F80030054688461446FEF749FE0028E3
:1015400040F08380E87900287FD1AB79DA077BD53A
:10155000EB68A868181A844228BF0446002C70D093
:10156000AB68C3F30802002A48D128688778013F96
:1015700007EA532717F0FF0710D10BB9286902E0DB
:101580006969FFF733F9012801D8022002E0431C02
:1015900003D10120E871BDE8F88F6861D5F800B08B
:1015A00069695846FEF7FAFD0028EED05FEA542A32
:1015B00000EB070621D09BF802309BF801000AEBF4
:1015C00007029A4288BFC7EB030A41463246534698
:1015D0003AF076FE0028DCD129680B7953B1086B0C
:1015E000801B504506D208EB402034314FF4007286
:1015F000FEF7CAFD4FEA4A2618E0AE61AE682868D9
:10160000A969C6F30806C6F50076A64228BF264695
:10161000FEF7F6FE0028BCD1A9682B68C1F30801CB
:101620001944404634313246FEF7AEFDAB683344D0
:10163000AB60D9F800303344B044C9F80030A41B83
:101640008CE72046BDE8F88F0720BDE8F88F2DE92C
:10165000F84F98460023C8F8003004460F46164657
:10166000FEF7B6FD002840F0AC80E079002840F09D
:10167000A880A3799A0740F1A380A368DE4228BF1F
:101680000026AEB1A268C2F30803002B6BD120681C
:101690008378013B03EA522313F0FF0A1CD112B9ED
:1016A000216959B900E06169FFF7C2F9014628B91B
:1016B000A368E26893427CD9E3607AE0012901D112
:1016C000022002E04B1C03D10120E071BDE8F88F3D
:1016D0002369616103B921612068A369026B9A42A1
:1016E00003D1FEF72BFE0028EED1D4F800B06169DB
:1016F0005846FEF753FD0028E2D0750A00EB0A09B0
:1017000023D09BF802309BF8010005EB0A029A42B5
:1017100088BFCAEB030539464A462B463AF0FAFD24
:1017200082460028D0D12068016BC9EB0101A94293
:1017300009D2343007EB41214FF40072FEF724FD4B
:10174000236883F804A06D0228E0A268E3689A4247
:1017500007D35846FEF7F2FD0028B5D12368C3F839
:101760003090C4F81890A5682068A169C5F30805F1
:10177000C5F50075B54228BF3546FEF741FE002885
:10178000A2D1A0682368C0F3080018442A46343068
:101790003946FEF7F9FC236801221A71A3682B442D
:1017A000A360D8F800302B442F44C8F80030761BD3
:1017B00067E7A37943F02003A3710020BDE8F88F09
:1017C0000720BDE8F88F70B50546FEF701FD064617
:1017D000002837D1AB799B0634D52868E969FEF734
:1017E0000FFE064670BB2C6AE37A43F02003E372D7
:1017F000EB682377AB891B0A6377EB89A377EB7BD5
:10180000E3772B69A376C3F307221B0C23751B0A0E
:10181000E276637547F0F8FAC0F30723A075E37525
:10182000030C000E23766076A674E674AB7923F081
:101830002003AB712B6801221A712868BDE8704043
:10184000FEF782BD304670BD10B50446FFF7BBFF02
:1018500020B92046FEF7BCFC00B9206010BD000096
:1018600007B502AB43F8040D18463AF0A5FC002872
:10187000A9BF034B0B201870002003B05DF804FBD8
:10188000681D002030B58FB001A90190002205A885
:10189000FEF714FE0446E8B902AB0B9305A80F4B04
:1018A00001990C93FFF71AFC044670B90A9919B90B
:1018B000059B079A5A610DE0CB7ADB0609D5059D99
:1018C0002878FEF70AFD686104E0042808BF0524B3
:1018D00000E0052420460FB030BD00BF52020020BA
:1018E0002DE9F04198B0002201900F46027001A945
:1018F0000FA8FEF7E3FD0546002840F0898004AB01
:101900001593454B16930F9B5B6911933C46DDF88D
:101910004480B8F1000F5ED001210FA8FEF7CBFF85
:101920000146002850D10FA8FFF76CF906460028A1
:101930004CD10F9B14991878FEF7CFFC31461190CB
:101940000FA8FEF7B8FF002842D10FA80021FFF72B
:1019500059F90646002856D10F9B14991878FEF7BE
:10196000BCFC80450ED1019B0D930FA807A90E94D6
:10197000FEF743FC0DF125030393019B1A784AB14E
:10198000039307E031460FA8FFF7A3F806460028A7
:10199000DBD038E003990A46531A12F8010B0028ED
:1019A000FAD1DA1C944215D31A46013A511C019817
:1019B00005D003998E5CA118C91A4654F5E7DB439C
:1019C0001C442F230355A2E7054604E0054602E028
:1019D000054600E01125019B03931DB1039B0022E6
:1019E0001A7015E00D4B03A918783AF019FCBC42A7
:1019F000F4D0039B5A1C0392019A125D1A700134B1
:101A0000BC42F6D3EAE7042E14BF35460225E2E7CE
:101A1000284618B0BDE8F08152020020681D002061
:101A200070B504460D46FEF7D3FB002870D1E0796F
:101A300000286DD1E3689D4204D9A27912F0020F0B
:101A400008BF1D460022A368A2600DB900254EE024
:101A50002068867876026BB1013B6A1EB3FBF6F113
:101A6000B2FBF6F28A4205D372421340A360ED1A2C
:101A700061690FE0216961B9FEF7DAFF01280146CB
:101A800001D1022002E0013002D10120E07170BDDD
:101A9000216161610029D9D0B5421AD9A3792068A2
:101AA0009A0704D5FEF7C4FF014618B910E0FEF707
:101AB0009DFE01464B1CE8D00129E2D923689B69B1
:101AC0009942DED2A36861613344A360AD1BE3E7B2
:101AD0003546A3682B44A360C5F30803002BB5D09B
:101AE0002068FEF75BFB0028CBD000EB5525A368F0
:101AF000C3F308021AB1A269954218BFA561E26852
:101B0000934281BFE360A37943F02003A3710020D7
:101B100070BD000010B586B00446019138B302A82C
:101B200001A90022FEF7CAFCF0B9029B236003ABB7
:101B3000A361134BE36120460199FFF7CFFAD0B9B7
:101B4000616939B1CB7ADB060DD5029B1878FEF7B7
:101B5000C4FBA060029BDB88A38020460021FEF727
:101B6000AAFE042805D105200023236006E00920F1
:101B700004E018B1F8E70428F6D1F4E706B010BD88
:101B80005202002010B50446FEF722FB00B9206087
:101B900010BD00007FB505460E46FEF719FB044652
:101BA00000BB26B928462146FEF785FE19E001ABA9
:101BB000AB610E4BEB6128462146FFF723F8042862
:101BC00001D12C6100E060B928463146FEF715FBD3
:101BD00028460021FEF77DFF042802D100232B6157
:101BE00000E00446204604B070BD00BF5202002051
:101BF00030B58FB00D46019001A905A80022FEF76F
:101C00005DFC044690B902AB0B9305A8094B019902
:101C10000C93FFF763FA044640B90A9B2BB12DB130
:101C200005A82946FEF7E9FA00E0062420460FB091
:101C300030BD00BF520200202DE9F34702AB14462D
:101C400043F8040D0F46104619460022FEF736FCF5
:101C50002468054600285DD1D4F818802369A8F1CE
:101C60000202934201D83B6054E094F80090B9F12D
:101C7000010F12D14FF00208064620464146FEF7FA
:101C8000B5FD431C3BD001283BD000B90136A36908
:101C900008F101089845F0D336E0616A03462E4604
:101CA00050B9204601F1010AFEF7AAFB58BB04F126
:101CB000340351464FF40070B9F1020F93F801C09C
:101CC0001A7806D152EA0C2208BF013602330238D4
:101CD00011E093F802E093F803A04FEA0E4E4EEAAB
:101CE0000A6E4EEA020242EA0C2222F0704202B967
:101CF000013604330438B8F10108D1D104E00125DC
:101D000002E0022500E005466379266143F0010305
:101D100063713E60284602B0BDE8F08770B598B0A8
:101D200001A90190012206A8FEF7C8FB0146002880
:101D300049D103AB0C930199244B0D9306A8FFF7EF
:101D4000CDF9014600283ED10C9BDB7A990605D4DB
:101D50000B9919B1CE7AF20721D401E0062132E0C5
:101D6000069D2878FEF7B9FA0446D0B1F30618D5D7
:101D70006B699C4213D00FA806A92422FEF704FA2F
:101D800002210FA81194FEF796FD0146D8B90FA8BD
:101D9000FEF738FF014610B1042802D013E00721F6
:101DA00011E006A8FEF7B0FF014660B924B9069815
:101DB000FEF7CAFA014606E021460698FEF7D1FF73
:101DC00001460028F3D0084618B070BD520200202A
:101DD0002DE9F04F95B0079047F016F807A9054692
:101DE00001220BA8FEF76AFB0646002840F0DB80C4
:101DF00008AB11930BA86E4B07991293FFF76EF97E
:101E00000646B0B1042840F0CE80119BDB7A03F087
:101E1000200303F0FF0173B90B98FEF709FE044697
:101E200058B1012C0BD102260B982146FEF799FFE1
:101E3000B9E00826B7E00626B5E00726F4E7631CFC
:101E400000F08C800B98FEF779FA06460028EBD15B
:101E5000DDF82CB021465846FEF7A0F90BF1340707
:101E6000314606904FF4007238463AF0DAFC2021F1
:101E70000B2238463AF0D5FC2E238BF834300593EC
:101E8000EBB201939DF804308BF84A30C5F3072379
:101E900002939DF808308BF84B30C5F307431022AE
:101EA00003939DF80C308BF84C3024FA02F6330A79
:101EB00004939DF810308BF83F202D0E5FFA84F8C4
:101EC000C4F307295FFA86FA8BF849303946202295
:101ED0008BF84D508BF84E808BF84F908BF848A0C4
:101EE0000BF15400FEF750F9059B0B9A8BF8553017
:101EF00011780D9BDDF818C0032903D1916A8B423C
:101F000008BF00238BF86E30C3F307211B0C8BF83E
:101F100068301B0A8BF86F108BF8693092F802B0AA
:101F2000BBF1000F1CD00B9801220CF10103C0F88B
:101F300030C002710593FEF7DEF9064600287FF4F3
:101F400073AF384631464FF400723AF06AFC0BF139
:101F5000FF335FFA83FBDDF814C0E1E7012663E796
:101F60000BA8FEF7B9FF064600287FF45DAF109B73
:101F70000B985D761022DA729DF804209A759DF810
:101F80000820DA759DF80C201A769DF8102083F849
:101F90001A8083F81B9083F814A05A7501230371EB
:101FA000FEF7D2F90646304615B0BDE8F08F00BF07
:101FB0005202002030B59FB00122019000910CA880
:101FC00001A9FEF77BFA002879D10C9B159303AB8E
:101FD00012930CA83B4B01991393FFF77FF800284D
:101FE0006DD1129BDB7A9A065ED41199002959D0E3
:101FF00006A80B311522FEF7C7F815A80CA9242254
:10200000FEF7C2F868463AF0D7F8002846DB15A874
:102010000099FFF763F8002842D004284FD115A893
:10202000FEF75AFF00284AD11A9D0DF11A0105F159
:102030000D001322FEF7A8F89DF818300C9C43F011
:102040002003EB7201232371EB7ADB062ED5179B5D
:102050000E9A9A422AD029462078FEF73EF9014688
:102060002046FEF79BF8014640B32046FEF7C8F92C
:102070000C9A20BB92F855302E2B17D1179B82F863
:102080006E30C3F307211B0C82F868301B0A82F8FC
:102090006930012382F86F10137107E00B200EE006
:1020A00008200CE004200AE0062008E00CA8FEF757
:1020B0002BFE20B90C98FEF747F900E002201FB074
:1020C00030BD00BF5202002070B58EB001A9019052
:1020D000012205A8FEF7F2F9002840F09D80019B3F
:1020E0008DF808001A782F2A04BF01330193019A52
:1020F00011468B1A11F8010B0028FAD113449342B0
:10210000A3EB020608D1002105A80791FEF7D3FB37
:10211000002840F081801BE013F8011D2029EED03B
:1021200000242246019B0121985C551C3DF016FCC1
:102130003DF030FC00213DF011FC08B906206BE0B9
:10214000364A12F8013F002B40D08342F9D1F5E71F
:1021500005A80121FEF756FD60B99DF808302BB1A6
:102160000A9802A90B22FEF70FF81CE00A9BE52251
:102170001A7025E004284FD19DF8080000284BD0A4
:10218000012105A8FEF71CFD0146002844D12022AC
:102190000A983AF046FB0B220A9802A9FDF7F4FFD1
:1021A0000A9B0822DA7246F02FFE0A9B98750A9B5A
:1021B000C0F30722DA750A9B020C000E1A765876D5
:1021C000059801230371FEF7BFF825E0FF2820D909
:1021D000092CB3D80EAB2344020A03F8302C013487
:1021E0000EAA631C1444B54204F8300C2A4601D2EE
:1021F0001C4697E702AA1344991A0A2903D82021FA
:1022000003F8011BF8E79DF80830E52B7FF47BAF5E
:1022100094E70A2CE4D991E70EB070BD71DA050895
:102220002DE9F04F8BB0012907908A46164600F23F
:10223000FF8207A839F0C0FF0028C0F2FB82AC4B38
:1022400053F82040002C00F0F78200232370A94BA4
:1022500013F8108003EB4003404693F801B039F0C7
:10226000F3FFC30700F1EA8200F0040000F0FF0270
:10227000002840F0E5824046BBF1000F2FD004F16A
:10228000340101233AF01CF808B10120F2E294F87D
:10229000332294F8323243EA02234AF6552293421B
:1022A00001D00E20E6E204EB0B1303F5F1731A796B
:1022B000002AF6D09A7ADF7AD97B120442EA0762C2
:1022C0001F7A3A435F7A42EA07279A7B120442EA6E
:1022D00001611A7B5B7B0A4342EA03230EE0012182
:1022E00009AA3AF045F80028CFD1099B2F2BCCD969
:1022F000BAF1000F14BF00273F27DB1B0993731EA1
:102300003342099A02D1002E40F09C8200234FF400
:10231000FA61B2FBF1F1784830F81300814201D242
:102320000133F8E7754931F81360B6F5007F01D342
:10233000760A00E01EB1812E28BF802600E001262B
:1023400040F6F573B2FBF6F59D4240F280824FF6FF
:10235000F5739D4240F28982AD00002305F2072506
:1023600003936D0A4FF0030920230193019B3B4423
:102370000293039B02992B440B44F11B19448A429C
:102380008FD34046032108AA049339F0F1FF049B40
:1023900020B9089A013AB2F5004F01D30122089200
:1023A000089ADDF824C0511E19445242B9F1030FB6
:1023B00002EA0102A2EB030308BF019A089301BFDE
:1023C000D2180192029AD2180ABF1346ED1802934E
:1023D000019B039AC3EB0C035B1BB9F1020FA3EB48
:1023E0000203B3FBF6F3049306D1049A40F6F573A7
:1023F0009A427FF656AF13E0B9F1030F07D1049A62
:102400004FF6F5739A427FF64CAF0C230DE0B9F10D
:10241000010F05D1BCF5803F2CBF0623012304E04A
:10242000BCF5803F34BF04230623BBF1000F09D065
:1024300004EB0B1B40468BF8E63104F1340100221B
:1024400001234CE0BAF1000F5AD104F1340B51468C
:102450004FF400725846CDF818C005933AF0E1F9F0
:10246000DDF818C0059B84F8F631FE2343F6C162FF
:1024700084F8F73107EB0C03B3FBF2F39A080893E7
:1024800084F8F9313F2384F8FA31CCF3072384F838
:10249000FF314FEA1C4384F8003255234FF0010E00
:1024A00042F03F0284F8FEC184F832324FEA1C6CDD
:1024B000AA2384F8F82184F8333284F8F3E184F80D
:1024C000F4E184F8F5A184F8FBA184F8FCA184F878
:1024D000FDA184F801C2404659465246734639F080
:1024E00019FF00287FF4D1AE4FF0F80B0AE000BFCF
:1024F000540400209C31060844DB05084CDA05082A
:102500004FF0F00B04F1340A00214FF400725046F2
:102510003AF087F95046D9490B22FDF735FE0222E1
:1025200084F840209DF8042084F842200023019A7A
:1025300084F83F30B9F1030F84F8453018BF022307
:10254000C2F3072284F84630099B84F84320012215
:10255000B3F5803F84F844209AB229BF120A120AC8
:1025600084F855201A0C34BF84F8482084F856208B
:102570004FF0FF0228BF84F8543084F84E2028BF63
:102580001B0EC7F3072234BF84F8473084F8573056
:1025900084F851203F233A0C84F84C3084F85220C0
:1025A00000233A0E84F84D3084F84F3084F85320DD
:1025B00084F8416084F849B084F85070019346F083
:1025C00023FCB9F1030F089082B2019B33D1120AA8
:1025D00084F87820020C84F87920C5F3072284F867
:1025E00059202A0C84F85A202A0E84F85B200222F3
:1025F00084F8602084F86130012284F8623084F825
:10260000633084F8653084F86730802384F877007D
:1026100084F86420000E062284F87430292384F89C
:102620007A0084F8585084F8662084F8763004F1F3
:102630007B00934919E0030C84F85D30C5F3072350
:1026400084F84B30802384F85B00120A000E84F873
:1026500058308C4984F85E00292384F85C2084F883
:102660004A5084F85A3004F15F001322FDF78CFDC4
:10267000552384F83232AA2384F833324046514637
:102680003A46012339F046FE00287FF4FEADB9F149
:10269000030F05D140465146BA1D012339F03AFED9
:1026A000504600214FF400723AF0BBF8B9F1030F25
:1026B00014D0754BB9F1010F18BF6FF0FF0343EA57
:1026C0000B03FF224FEA136B089384F8343084F82D
:1026D000352084F8362084F837B01CE06BF0FF0317
:1026E000089384F83430FF2384F8353084F836308A
:1026F00084F8373084F8383084F8393084F83A3048
:1027000084F83B3084F83C3084F83D3084F83E3027
:102710000F2384F83F30029B51461A4603F1010B08
:102720004046012339F0F6FD014600287FF4ADADA7
:1027300050464FF400723AF074F801230893089B56
:10274000AB4213D20BF1010C404651465A460123CD
:10275000CDF804C039F0DEFD00287FF496AD089B6B
:10276000DDF804C001330893E346E8E7039B5D46C8
:10277000B9F1030F18BF1E460BF1010C404651463C
:102780005A460123CDF804C039F0C4FD00287FF477
:102790007CADDDF804C073196345E346ECD1B9F1B3
:1027A000030F3CD1522384F8343084F83530612350
:1027B00084F8363084F81B32049B84F82102013BF4
:1027C000412284F8372084F81A22C3F3072284F8C0
:1027D0001C3284F81D221A0C1B0E84F81F320223AF
:1027E00084F820325523722184F83232AA2384F8E7
:1027F000181284F8191284F81E2284F8220284F830
:10280000230284F8333251467A1C0123404639F0C2
:1028100081FD40465146FA1D012339F07BFD002120
:1028200040460A4639F0A4FD003018BF012021E0DF
:1028300013201FE00B201DE00C201BE0032019E0FB
:102840000A2017E0B6F5007FBFF472AD73E505EB23
:10285000450501356D0803354FF00109202305F2C8
:10286000FF1503936D0A01237FE502356D004FF0DC
:102870000209F3E70BB0BDE8F08F00BF82DA05086C
:102880008EDA0508A2DA050800FFFF0003685A6B1C
:1028900012F0450FFBD05A6B520703D504229A63FE
:1028A00003207047586B10F0010015BF012040F263
:1028B000FF5298639A63704770B5436A86B01B04F1
:1028C00001930D23054602934023002203930E46F5
:1028D0004FF480630068009201A9049205934DF0C3
:1028E0006BFC2868436B13F0450FFBD0436B5B0711
:1028F00003D50423836303207CE0436B13F00104BE
:1029000003D001238363184674E04DF068FC0D2862
:1029100001D010206EE02B6840F2FF529A632046EF
:102920004DF060FC0090009B3348C3F343233370A9
:10293000009B184000285DD0009B002B39DB009BDA
:102940005D0038D4009B9C0037D4009BD90036D45E
:10295000009B1A0135D4009B5B0134D4009BDE013F
:1029600033D4009B1D0232D4009B5C02D1D4009B67
:1029700099022ED4009BDA022DD4009B1B032CD489
:10298000009B5E032BD4009B9D032AD4009BDC0399
:1029900029D4009B190428D4009B5A0427D4009BF7
:1029A0009B0426D4009B13F0080F14BF1A200020AC
:1029B00020E01C201EE009201CE00A201AE00B2069
:1029C00018E00C2016E00D2014E00E2012E00F207D
:1029D00010E011200EE012200CE013200AE0142079
:1029E00008E0152006E0162004E0172002E0182079
:1029F00000E0192006B070BD08E0FFFD70B5054687
:102A000000680E46436B13F0450FFBD0436B5B072A
:102A100003D504238363032070BD436B13F00104CB
:102A200002D00123836339E04DF0D9FBB04201D0DD
:102A3000102070BD2B6840F2FF529A6320464DF083
:102A4000D1FB284B03404BB3002829DB450029D498
:102A5000840029D4C10029D4020129D4430129D4F6
:102A6000C60129D4050229D44402E1D4810227D425
:102A7000C20227D4030327D4460327D4850327D4CF
:102A8000C40327D4010427D4420427D4830427D4C1
:102A900010F0080F14BF1A20002070BD184670BD3A
:102AA0001C2070BD092070BD0A2070BD0B2070BDB8
:102AB0000C2070BD0D2070BD0E2070BD0F2070BDAC
:102AC000112070BD122070BD132070BD142070BD88
:102AD000152070BD162070BD172070BD182070BD68
:102AE000192070BD08E0FFFDF0B58FB0002305464A
:102AF000019302931024402206930E464FF4806304
:102B000003A90827006803970494059207934DF0E2
:102B100053FB28462146FFF771FF002861D16B6AFD
:102B20002868A34003A93724039304944DF044FB81
:102B300021462846FFF762FF0446002851D14FF096
:102B4000FF33089330230A9302230B930C90012345
:102B500008A928680D9309974DF050FB039403A929
:102B60003324286804944DF027FB28462146FFF7BC
:102B700045FF002835D16C462868426B40F22A6335
:102B800013403BB9436B9F02F7D54DF001FB44F86E
:102B9000040FF1E7436B190703D50823836304206F
:102BA0001FE0436B9A0702D50223836318E0436B4F
:102BB0009B0603D520238363062012E0436B13F4A6
:102BC000007304D04FF400738363072009E040F2E0
:102BD000FF528263019A12BA7260029A12BA32608C
:102BE00018460FB0F0BD10B5044600684DF0DCFA91
:102BF000204646F039F8002010BD00002DE9F041D4
:102C00008CB08E46129E01681D46012E4FF00003C7
:102C1000CB6283640365C36488BF01234365CB6BC8
:102C200043F44A7343F00203CB63294B044617462F
:102C3000806D01221A60274B0364274BC3648031E7
:102C400005FB06F3724648F061FB236A2068022BFD
:102C50004FF0400303934FF0000308BF4FF400759B
:102C60004FF01008049301A94FF4806318BF6F431D
:102C70000195CDF8088005934DF09EFA2046414617
:102C8000FFF7BCFE08BB4FF0FF3306939023089379
:102C9000022309930A90012306A9754320680B9328
:102CA00007954DF0ABFA012E8CBF1223112301A919
:102CB0002068029301974DF07FFA012E20468CBFC9
:102CC00012211121FFF79AFEE0640CB0BDE8F081FB
:102CD0008C852542432E0008572E00082DE9F0412F
:102CE0008CB01546129E02681F46012E4FF000035D
:102CF000D36283640365C3648CBF032302234365EB
:102D0000D36B43F44673044643F00203C06DD363B0
:102D1000284B0364284BC364803207FB06F348F05A
:102D2000F5FA264B206801221A60236A022B4FF025
:102D3000400303934FF0000308BF4FF400774FF0B8
:102D40001008049301A94FF4806318BF7D430197D5
:102D5000CDF8088005934DF02FFA20464146FFF745
:102D60004DFE18BB012E94BF1823192301A920681A
:102D7000029301954DF020FA012E20468CBF1921B7
:102D80001821FFF73BFE054678B94FF0FF33069355
:102D90009023089309900A9001237E4320680796A8
:102DA00006A90B934DF02AFAE56428460CB0BDE85D
:102DB000F08100BF612E0008752E00088C85254229
:102DC0007047704703685A6BD10510B5044609D5A2
:102DD0004FF480729A63012383640023C364FFF776
:102DE000EFFF25E05A6B920703D502229A63C26473
:102DF0001CE05A6B110703D508229A63042314E0E0
:102E00005A6B920603D520229A6306230DE05A6B73
:102E1000D10603D510229A63052306E05A6B92056A
:102E200006D54FF400729A630723E364FFF7C9FFE6
:102E30002268D36B23F4434323F03A03D36310BDDA
:102E40007047C36B01221A659A6C002AFCD0986DFA
:102E5000FFF7F6BF7047C36B986DFFF7FBBF704776
:102E6000C36B01221A659A6C002AFCD0D86DFFF75B
:102E7000F6BF7047C36BD86DFFF7FBBF026A81F8DE
:102E80005620426AA1F8542090F82B20034690095E
:102E90000870C2F3830002F0030248708A7093F84E
:102EA0002A20CA7093F829200A7193F828204A71C1
:102EB000DA6A100E0001C880C888C2F3074280B2E7
:102EC00040EA121002F00F02C8800A7293F82D2017
:102ED000D0094872C2F380108872C2F34010C872E1
:102EE000C2F300100873002048732DE9F0431C6AF8
:102EF000012C3DD802F0030292020A610A6993F89C
:102F00002C4042EA84020A610C6993F8332044EAB7
:102F100092140C61C2F3C20402F007020C754A75E8
:102F200093F8322054098C75C2F3820402F0030234
:102F30005200CC750A760C7E93F8312044EAD21404
:102F40000C760E690D7E0F7A0124023504FA07F71C
:102F5000AC404FEAE4790136A4FB074507FB09556D
:102F6000A4FB068906FB05990F65C1E9128923E0D8
:102F7000022C20D1DA6A02F03F0212040A611A6BB5
:102F80000C69150E44EA05240C610C69C2F307456F
:102F90002C430C610C690025013445F10005ED045A
:102FA00045EA5435E4048C644FF40074C2F30722FC
:102FB000CD640C6500E02920C2F3801402F03F02CA
:102FC00052004C768A761A6B8D7EC2F3C0142C4365
:102FD00002F07F028C76CA7693F83720D4090C77FA
:102FE000C2F341144C77C2F3820402F00302920050
:102FF0008C77CA7793F83620CC7F44EA9214CC774A
:10300000C2F3401481F8204002F00102002481F84C
:10301000214081F8222093F83520D40981F82340FB
:10302000C2F3801481F82440C2F3401481F8254093
:10303000C2F3001481F82640C2F3810402F00302B7
:1030400081F8274081F828205A6B0124C2F34602F8
:1030500081F8292081F82A4093F83B2081F82C2020
:103060009A6BC2F307452D02CD85CD8DAEB2C2F36A
:10307000072535431206CD850A63DA6B0D6B160EF4
:1030800045EA06450D630D6BC2F3074645EA062582
:103090000D630D6BC2F307263543D2B20D6381F881
:1030A000342093F8432081F835201A6CC2F3074589
:1030B0002D068D638D6BC2F3072645EA06458D63A9
:1030C0008D6BD2B245EA02228A638D6B5A6C45EA57
:1030D00012658D6391F83C50C2F3074245EA121520
:1030E00002F00F02120281F83C50CA875B6CCA8F53
:1030F00095B2C3F307222A43C3F34603CA8781F874
:10310000403081F84140BDE8F08300002DE9F047F0
:1031100092B0002504460E46059545F093FD7623B2
:1031200011930F95109512AB13E907008DE8070076
:103130000C950D950E958F4F20680CAB0ECB4DF076
:103140000BF8069520683D604DF02AF801233B609E
:10315000206807954FF4806307A90B93089509959C
:103160000A954DF029F82068436B4FF48032C3F381
:10317000C013002B40F05B81436B013AC3F3C013D3
:10318000F7D103230693069D002D40F093804FF462
:10319000D57307930823089307A9402309934DF09B
:1031A0000BF82068436B13F0450F14BF0122002277
:1031B0004FF4803342B93BB1426B12F0450F14BF5C
:1031C00001220022013BF5E7426B0BB1570703D503
:1031D00004238363032505E0436B590646BF402360
:1031E000836329250695069A002322B901222262CB
:1031F0004FF0804700E01F46372507A90793089541
:103200004CF0DAFF20462946FFF7F8FB0690069BB4
:10321000002B4FD198460023372507A94FF0400ACD
:103220004FF480692068079308950A93CDF824A08D
:10323000CDF82C904CF0C0FF29462046FFF7DEFB6E
:103240000690069D002D35D147F0004343F48013CE
:1032500007932068CDF824A0292307A908930A958D
:10326000CDF82C904CF0A8FF23685A6B12F0450F54
:10327000FBD05A6B520745BF0422032540F2FF5290
:103280009A6358BF9A630695069898B94CF0AAFFBE
:10329000002808F101084FF6FF7302DB9845BAD108
:1032A00001E0984502D11B23069303E0430044BF8D
:1032B00002232362069B0593059D002D40F0B380F9
:1032C00020684CF075FF002800F08080236A042BF2
:1032D00020D002230893C0230993206807954FF458
:1032E000806307A90A950B934CF066FF2046FFF711
:1032F000CDFA00286CD14CF075FFA06304204CF08F
:1033000071FFE06308204CF06DFF20640C204CF04E
:1033100069FF6064236A022B01D9062B32D1032393
:1033200008932068402307A909934CF045FF2068C3
:10333000436B13F0450FFBD0436B5F0703D50423AA
:103340008363032545E0436B13F0010702D0012599
:1033500085633EE04CF043FF03286DD1236840F2C3
:10336000FF529A6338464CF03DFF10F4604F03D192
:10337000000C08E0A080254281045FD442045BD4A5
:1033800003045DD40120236A042B22D06062092348
:1033900000040790089307A9C023206809934CF004
:1033A0000BFF2046FFF772FA054690B94CF01AFF62
:1033B000A06204204CF016FFE06208204CF012FFDF
:1033C00020630C204CF00EFF606302E0252500E036
:1033D00005460595059B33BB20463146FFF74EFD5C
:1033E0000590059AA2B9B6F8543020680A921B04D9
:1033F000079340230725099307A94FF480630B9394
:1034000008954CF0D9FE20462946FFF7F7FA0590BB
:1034100004F1100393E807008DE80700231D0ECB8D
:1034200020684CF099FE059812B0BDE8F08740F294
:10343000FF5383630023A5E61025CAE71325C8E7D9
:103440000F25C6E7F0B5036A032B8DB005460E467F
:1034500000F08480022B00F28380B1F5805F00F0E1
:103460008180B1F5006F29D10020049005904CF0C7
:10347000B9FE80016ED4284604A9FFF735FB044647
:10348000002872D1059B590366D56B6A09901B040D
:10349000069340233727089306A94FF480632868D2
:1034A0000A9307974CF088FE28463946FFF7A6FA9C
:1034B0000446002859D10223069329E0002953D15C
:1034C0000846049105914CF08DFE820142D42846B5
:1034D00004A9FFF709FB0446002846D1059BDB033E
:1034E0003AD56B6A09901B0406934023372708934B
:1034F00006A94FF4806328680A9307974CF05CFE96
:1035000028463946FFF77AFA044600282DD106905E
:10351000062406A9286807944CF04EFE214628464A
:10352000FFF76CFA044600BB6B680693AB68079321
:10353000EB6808936B690A93AB690B9309960CAB24
:1035400013E907008DE8070006AB0ECB28684CF0A6
:1035500003FE0AE00E2408E0252406E0272005E00B
:10356000002003E0272400E0262420460DB0F0BD13
:1035700030B587B000234022054601930C24049304
:1035800001A94FF4806300680392059302944CF004
:1035900013FE28462146FFF731FA07B030BD2DE96A
:1035A000F043044600681E460023C362236A8DB0C0
:1035B000022B4FF0400303934FF0000308BF4FF47A
:1035C00000764FF0100704930D464FF4806301A975
:1035D0009146029718BF06FB02F90593DDF850806B
:1035E00001964CF0E9FD39462046FFF707FA0746F9
:1035F000002840F090804FF0FF330693902308930B
:10360000022309930A90012306A908FB06F6206805
:103610000B9307964CF0F2FDB8F1010F8CBF12230B
:1036200011232068029301A9CDF804904CF0C4FD49
:10363000B8F1010F204619D91221FFF7DFF9002850
:103640006AD12268516B40F22A330B4043BB536B63
:103650001804F7D52E1F05F11C0920684CF098FDC1
:1036600046F8040F4E45F8D12035EAE71121FFF75F
:10367000C5F9002850D12268516B40F22A630B40F3
:1036800073B9536B1904F7D52E1F05F11C09206877
:103690004CF07EFD46F8040F4E45F8D12035EAE7A0
:1036A00023685B6BDB0509D5B8F1010F06D9236AE6
:1036B000022B03D82046FFF75BFF074623685A6BAF
:1036C000160703D508229A63042025E05A6B900759
:1036D00002D5022098631FE05A6B910603D5202281
:1036E0009A63062018E05A6B920502D44FF0FF3619
:1036F0000AE04FF400729A6307200DE046B14CF0E7
:1037000047FD45F8040B013E2068436B9B02F5D44E
:1037100040F2FF53836338460DB0BDE8F0832DE9D6
:10372000F04705468CB00068149F984600238DF83A
:103730000330C3622B6A022B4FF0400303934FF018
:10374000000308BF4FF400784FF0100904930E46B1
:103750004FF4806301A91446CDF8048018BF08FB1C
:1037600002F4CDF8089005934CF026FD2846494612
:10377000FFF744F9002840F0C380012F8CBF1923C4
:10378000182301A92868029301944CF015FD012F1C
:1037900028468CBF19211821FFF730F9044600286C
:1037A00040F0AE804FF0FF330693902308930990CA
:1037B0000A90012307FB08F82868CDF81C8006A9A9
:1037C0000B934CF01BFD012F40D92B68596B40F235
:1037D0001A320A409ABB596B4904F7D5C4EB080367
:1037E0001F2B13D813F0030F4FEA930318BF0133B5
:1037F0004FEA830906EB090A564505D03146286889
:103800004CF0C9FC0436F7E74C440DE0914606EB5A
:103810000901286809F104094CF0BDFCB9F1200F39
:10382000F5D106F1200A20345646CEE7516B490403
:103830000ED4516B40F21A630B40002BF6D02B686C
:103840005B6BD80529D430E04C4456462A68F0E733
:10385000C4EB08021F2A11D812F0030F4FEA92029C
:1038600018BF01324FEA820906EB090A5645EBD030
:10387000314628684CF08FFC0436F7E7994606EB92
:103880000901286809F104094CF085FCB9F1200F01
:10389000F5D106F1200A2034D7E7012F05D92B6A8C
:1038A000022B02D82846FFF763FE2B685A6B1407D9
:1038B00003D508229A63042022E05A6B900702D5B0
:1038C000022098631CE05A6BD10603D510229A633C
:1038D000052015E05A6B920504D54FF400729A63E7
:1038E00007200DE040F2FF529A6328460DF10301D4
:1038F000FEF7E2FF20B99DF80330063B012BF4D917
:103900000CB0BDE8F08738B504460D46006DA16CDB
:10391000E26C2B4600B909B123680AE0002AFBD10A
:10392000002BF9D0206DA16CE26C013BF2E71DB1D8
:10393000013D5A6B9204FAD4636D012B0DD12046E0
:10394000FFF716FE0DB900B90420236840F2FF52BC
:103950009A63E36C2BB1E06C38BD002DF4D00020ED
:10396000F3E738BD30B5436A87B01B0401934023A9
:103970000393002304460D25049301A94FF48063AB
:103980000068029505934CF017FC20462946FFF786
:1039900035F838B94CF026FCC0F34320043818BF82
:1039A000012000E0022007B030BD70B504460E468D
:1039B000006DA16CE26C334600B909B123680AE0DE
:1039C000002AFBD1002BF9D0206DA16CE26C013BE9
:1039D000F2E71EB1013E5A6BD204FAD4636D032B99
:1039E00015D12046FFF7C4FD05460EB900B90425E0
:1039F000236840F2FF529A63E36C0BB1E06C70BD38
:103A00002046FFF7AFFF0028FAD1284670BD002EF0
:083A1000EDD00025ECE70000F9
:020000040802F0
:10000000C460056146618761C0F81C80C0F820901B
:10001000C0F824A0C0F828B0C0F82CD0C0F808E080
:1000200000F002B800200000024B9A68026098605D
:1000300000207047A41A0020024B9A6812689A6048
:10004000704700BFA41A00200E4B9C6806461D4650
:100050000CB920F029FC23686660AB602046C468B8
:10006000056946698769D0F81C80D0F82090D0F8DF
:1000700024A0D0F828B0D0F82CD0D0F808E0012087
:100080007047FEE7A41A002010B50021044600F0D6
:10009000D1FA28B920461CB1BDE810400CF0AEBF23
:1000A00010BD002100F0C6BA10B50121044600F0D1
:1000B000C1FA28B920461CB1BDE810400CF09EBF23
:1000C00010BD38B50546FFF7DFFF044628B925B156
:1000D0002846BDE838400CF091BF204600212A4652
:1000E0001CF09FFB204638BD10B501220C4600F0E5
:1000F0000BFC28B920461CB1BDE810400CF07EBFB7
:1001000010BD00F001BC00F075BB00003548D0F810
:10011000B0322DE9F0474FF0030E00F5D8760446D3
:1001200000F52C77B34246D91D1FD0F898C153F87B
:10013000041CC0F8B052002201328B184FEA930819
:1001400003F003031CF808805B0048FA03F303F094
:100150000303022BF0D0D0F8A43112014FEA920C25
:1001600003EB0113002A3AD0043B53F8042F110784
:100170001AD1D0F8A4118A4216D3D4F8A851AA42B1
:1001800012D2521A48BF0F3212114FEA9209D0F818
:1001900098A102F003011AF80980490048FA01F514
:1001A00005F00305012D08D0BCF1010CDDD1D0F81C
:1001B000B032B342B8D8BDE8F0870EFA01F141EA97
:1001C00008080AF80980D4F8B012B94201F104080D
:1001D00036BFC4F8B082C4F8AC510A60E4E72B46DD
:1001E000A0E700BFA41A0020F8B521F00F073C1AC1
:1001F000164A174DE400A2FB0434640A0319A7EB66
:10020000841E224600211E46C5F8A031C5F8A4E18F
:10021000C5F89801C5F89C41C5F8A8711CF001FB10
:10022000A2000732D208002130461CF0FAFA00235F
:1002300001214FF0FF32A5F8B612C5F8BC22C5F86F
:10024000C032A5F8B432C5F8B832F8BDF32C23FAA1
:10025000A41A0020034AB2F8B4320133A2F8B4322F
:10026000704700BFA41A0020034AB2F8B432013B21
:10027000A2F8B432704700BFA41A0020034BB3F8B1
:10028000B402003018BF0120704700BFA41A00203C
:100290002DE9F843264CB4F8B432002204F5D871A5
:1002A0000133A4F8B432C4F8B012C4F8B822C4F8C8
:1002B000AC21A4F1040904F5C075264604F52C7898
:1002C000032759F8043F1A0719D1D4F8A4219342FF
:1002D00015D3D6F8A8118B4211D29B1A48BF0F3301
:1002E0001B119808D4F898E103F003021EF800C02F
:1002F00052004CFA02F101F00301012905D0FFF789
:1003000005FFA945DDD1BDE8F88307FA02F242EA0C
:100310000C020EF80020D6F8B022424502F104008B
:1003200036BFC6F8B002C6F8AC111360E7E700BFED
:10033000A41A0020002942D02DE9F047204E0D4696
:10034000A0F10409374606F52C78002459F8043F3B
:100350001A0719D1D6F8A4118B4215D3D7F8A821C2
:10036000934211D25B1A48BF0F331B119808D6F87D
:1003700098E103F003021EF800C052004CFA02F1AB
:1003800001F00301012906D00134FFF7BFFEAC42A2
:10039000DCD1BDE8F0874FF0030A0AFA02F242EA24
:1003A0000C020EF80020D6F8B022424502F10400FB
:1003B00036BFC6F8B002C6F8AC111360E4E7704768
:1003C000A41A00202DE9F04F544ED6F89C01D6F81F
:1003D000AC3183B0800006F5D87537463BB30024B6
:1003E000C6F8B052C6F8AC4118B944E001348442B2
:1003F00019D2A308D6F8981104F00302CB5C52007E
:10040000134103F00303032BF0D1D7F8B0321A1DC8
:10041000C7F8B0221C60FFF779FED7F89C010134C1
:1004200080008442E5D3D6F8AC31002BD7D110B38D
:100430009C46DFF8E8901D464FF0030A06E0032BC8
:1004400060D0012B22D00135854214D2AF08D6F8F6
:10045000982105F00304D15D640041FA04F303F030
:100460000303022B02EB070EE9D1BCF1000F3DD1D3
:1004700001358542EAD3B6F8B4320022013BA6F832
:10048000B432C6F8C02203B0BDE8F08F4FEAD50BF6
:10049000D9F8A02112F80BC005F007084CFA08F0B3
:1004A000C3075A4422D52901D9F8A4014358084466
:1004B00083B16A4640F24D210BF050FF009A22B101
:1004C00000206A4601460BF0F3FED6F8A02112F890
:1004D0000BC05A44012303FA08F32CEA030C82F8F8
:1004E00000C0D6F89831D95D03EB070E0AFA04F381
:1004F00021EA03018EF80010D6F89C014FF0010CA0
:100500008000A0E70223A34021EA0301D155D9F8D6
:100510009C014FF0000C800095E700BFA41A00205A
:10052000434BD3F8A411D3F8A8212DE9F04F521A68
:100530000025D3F89891D3F89C31856080E8240099
:10054000C56005614561856199F800B04FEA83088F
:100550002E46AC46AA46AE4629462A462F467F007E
:100560004BFA07FB0BF00303012B31D03FD3022BD7
:1005700002D10136466001310132C2EB0804B4FAFF
:1005800084F4640964B9930802F0030719F803B00E
:100590007B004BFA03F313F0030301D0012BDED1F0
:1005A00001292CD002292ED0A94284BF81610D4699
:1005B00094B9012B4FEA920329D019F803B002F045
:1005C00003077F004BFA07FB0BF00303012BCDD190
:1005D000013646601946CFE7D64501D9C0F80CE090
:1005E00036014FEA0C1346608360BDE8F08F0CF1D2
:1005F000010CC0F808C00EF1010E0021BCE707692C
:1006000001370761D0E7476901374761CCE7D64535
:1006100005D8A64619F803B002F003079FE7C0F813
:100620000CE0F24619F803B0A64602F0030796E77D
:10063000A41A00202DE9F04F00F10F06360983B00F
:1006400055D06B4FB7F8B432002B50D1B7F8B64243
:1006500001918046002C4ED1D7F8C022D7F89CE1FA
:10066000724538BF012542D2D7F8980181181AE0A7
:100670000134A64250D913F00C0F1ED10134A6420A
:1006800040F2AA8013F0300F1CD10134A64240F290
:10069000A68013F0C00F1AD10134A64240F2A28006
:1006A0000132724518D211F8013B13F0030FDFD06D
:1006B00013F00C0F4FF00004E0D013F0300F4FF0A8
:1006C0000004E2D013F0C00F4FF00004E4D0013278
:1006D00072454FF00004E6D34DB925F053FDD7F82D
:1006E000C022D7F89CE172454FF00105BCD3002031
:1006F00003B0BDE8F08FD7F8B822D7F8BC329A42E1
:1007000073D2D7F8C022D7F89CE1724528BF0024E5
:10071000E3D200252C46A7E79300191B012C03F117
:10072000010201F1010904BF9408C7F8C0424FEA71
:10073000990409F0030A4FEA4A0A10F804C04FF07E
:10074000010E0EFA0AFE02314EEA0C0E8B4200F840
:1007500004E028BF4FF0020A10D34FEA910ED7F8F9
:10076000985101F0030415F80E0064000AFA04F42D
:10077000013120438B4205F80E00EED2D7F8A4B128
:10078000D7F8B8321A4C4FEA091AC9EB02020BEB40
:100790000A051E44C8EB021205EB08000021C7F849
:1007A000B8621CF03EF8019B1BB9284603B0BDE8B7
:1007B000F08F0023D4F8A0414BF80A304FEAD9015A
:1007C0000123625C09F0070903FA09F31343284681
:1007D000635403B0BDE8F08F9200531C9DE7920074
:1007E000931C9AE79200D31C97E725F0CBFC88E78F
:1007F000A41A00202849B1F8B432EBB903071BD181
:10080000D1F8A431984217D3D1F8A821904213D23D
:10081000C31AF0B548BF0F331B119C08D1F89821BB
:100820001D4D125D03F003004000024102F003027F
:10083000012A184601D0F0BD7047DE08D5F8A0E1C6
:1008400003F0070C1EF8067002FA0CF227EA020207
:100850000EF80620D5F8C022944238BFC5F8C04231
:10086000D1F898512A5D9E08032703F003035B002B
:1008700007FA03F322EA0302AA550130D1F898518E
:10088000860800F00303AA5D5C0042FA04F404F059
:100890000304022CEBD0CEE7A41A002010F00F03C3
:1008A0001DD1184AD2F8A411884219D310B4D2F835
:1008B000A841A0420FD2401A48BF0F300111D2F810
:1008C00098418A0801F00300A25C4000024102F056
:1008D0000302012A06D018465DF8044B7047002336
:1008E00018467047002001300B189A0803F00303E4
:1008F000A25C5B0042FA03F303F00303022BF2D085
:100900000301E8E7A41A00202DE9F0470546002876
:1009100000F0B78092468846002900F0B88010F0B9
:100920000F0063D15E4AD2F8A461B5425CD3D2F81D
:10093000A8319D4258D2AE1B48BF0F363611B108C0
:10094000D2F89831564F5C5C06F0030149000C4127
:1009500004F00304012C49D1B7F8B402002845D1B2
:10096000D7F89C1106F1010C890008F10F0E6145C2
:100970004FEA1E1E814611D94FEA9C070CF0030076
:10098000DF5D4000074107F00307022F31D02FB988
:1009900009F1010909EB040086452BD8A64551D081
:1009A00074452CD8A144CE454FD834447644B44243
:1009B00010D24FF0020C01E0D2F89831A70804F0F1
:1009C0000300D95D40000CFA00F001340143B44249
:1009D000D955F1D1C8EB0E1205EB080000211BF030
:1009E00020FF2846BDE8F087BDE8F0870020BDE87D
:1009F000F08701340CF1010C6145BDD8CEE7B4EBB2
:100A00000E04764416D0344431464FF0030E01E014
:100A1000D2F898314FEA910C01F0030713F80C005B
:100A20007F000EFA07F7013120EA0700A14203F820
:100A30000C00EDD1D2F8C032194AB6089E4201D25C
:100A4000C2F8C0622846BDE8F087F308D2F8A021BA
:100A5000D15C06F00706314101F00101BAF1000F47
:100A60001AD04046FFF7E6FD06460028BCD022011A
:100A700029461BF093FE2846FFF7BCFE3046BDE832
:100A8000F08708462946BDE8F047FFF7D3BDFFF7DA
:100A9000B1FE4046BDE8F0875046BDE8F08700BF94
:100AA000A41A002010B58AB003A80B4CFFF738FD3C
:100AB0000599039A049B00912046084900F0B0FF75
:100AC0000998069900900191079A089B04492046CD
:100AD00000F0A6FF0AB010BDC4630508BC1E0508DF
:100AE000E01E05082DE9F041544F55495548D7F807
:100AF000A42100F095FFD7F89C11890018BF0025AC
:100B00001ED180E005F0030676004FEA9508D7F87D
:100B100098314A4A13F80830334103F00303022B9B
:100B20006FD0032B6BD0012B44D02E224649454871
:100B300000F076FFD7F89C1101358900A94262D9EF
:100B4000A806DFD18D426CD2D7F898014FEA9508FC
:100B500005F0030610F80830760033419A0721D1DA
:100B60002C4604E0825C42FA03F39B0708D101346F
:100B700004F003038C424FEA94024FEA4303F1D39B
:100B8000621B7F2A0ED992092E48304900F048FF97
:100B9000D7F89C3124F03F05B5EB830F33D24FEAF1
:100BA000950800262A4A2B4926482B011A4000F0B6
:100BB00037FFACE7D2F8A411274A2B01CB58934258
:100BC00029D0264A934228D0254A93422FD0254A3D
:100BD00093421ED0244A93421BD0244A93421ED0F3
:100BE000234A93421BD0234A934222D0224A934263
:100BF00021D0224A93420CBF4D22682296E76D22F3
:100C000094E73D2292E70F481D49BDE8F04100F00E
:100C10008FBB53228AE7542288E74C2286E7412281
:100C200084E705F0030676004FEA9508BAE7442208
:100C30007CE746227AE7422278E700BFA41A002028
:100C4000281F0508C46305086C1F0508481F050810
:100C5000F0FF0F00641F0508D0A905080C970508D0
:100C6000F4880508FCA60508B4A605085086050802
:100C70001486050804930508D09305089C98050878
:100C8000441F0508074B5B694BB15A68904204D377
:100C9000801A043053F8200070471B68F4E71846A8
:100CA000704700BFA41A002070B5144C6369064653
:100CB0009868DB68834216D30230C000FFF7F1F971
:100CC000054620B96369986840000CF097F963699C
:100CD0002B60D9685A689B685B00AB600A440023AC
:100CE0006A60EB6065616369DA68501C0432D86041
:100CF00043F822605B68013B184470BDA41A0020D1
:100D0000014441F20553884205D210F8012B03EB50
:100D100043135340F7E798B2002808BF01207047FB
:100D2000034B044A5A610022C3F88421704700BF74
:100D3000A41A00202C2005082DE9F84F814688468A
:100D4000FFF7DEFF154B5C69834624B3E56804F1C9
:100D5000100A043504EB85055646AE42374618D2D4
:100D600056F8040B4278037843EA02235B45F4D13A
:100D700083784345F1D10330494642461BF073FD69
:100D80000028EAD16368CAEB070003EBA000BDE8C6
:100D9000F88F2468D9E72046BDE8F88FA41A002010
:100DA0002DE9F04780460E46FFF7C6FF02460028B1
:100DB0005AD12E4CD4F88401351DC8B1D4F88C31E9
:100DC000D4F888112B448B4212D92944FFF799F9A2
:100DD000074640B9D4F88401D4F88C11FFF784F9A0
:100DE000C4F8847104E0D4F888312B44C4F8883105
:100DF000D4F88431CBB97F2D8CBF2F46802738465D
:100E0000FFF74FF9C4F8840150B92846FFF749F9B4
:100E1000164BC3F8840110B928460CF0EFF82F46A2
:100E20000023C4F88871C4F88C31D4F88C91D4F8BC
:100E300084A131464D444046C4F88C51FFF760FF11
:100E40000AEB09070AF80900000A7870BE70F81C5E
:100E5000414632463E441BF0A1FC0023F370384665
:100E6000BDE8F047FFF720BFBDE8F087A41A0020D7
:100E700010B504461BF009FD01462046BDE81040B0
:100E8000FFF78EBF38B5054604300C46FFF7FCF877
:100E9000206085702068033038BDF8B58578C71CA0
:100EA000044629463846FFF747FF064668B93846E4
:100EB0002946FFF725FF25442070000A6070EE7078
:100EC0002046BDE8F840FFF7EFBE2046FFF71BF9CC
:100ED0003046F8BD08B5FFF7D5FE4278007840EA05
:100EE000022008BD08B5FFF7CDFE807808BD08B523
:100EF000FFF7C8FE033008BD10B50C46FFF7C2FE71
:100F000083782360033010BD2DE9F0411D46002396
:100F100003600B6013602B60174B5C6907468846C3
:100F200016461CB3154B9C4220D03B6801333B60F6
:100F3000D8F80020E3681344C8F80030E3680433AD
:100F400004F1100204EB83039A4207D23168081DB2
:100F500052F8041B897801443160F5E72046FFF719
:100F60009DFC2B68246818442860DAE72A683368F7
:100F700013442B60BDE8F081A41A00202C20050842
:100F80000C4B70B55C69A4B10B4B9C4211D0E3686B
:100F9000043304F1100604EB8305AE4207D256F881
:100FA000042B06490648033200F03AFDF5E72468B1
:100FB000E9E770BDA41A00202C200508B832050806
:100FC000C463050870B54468036821449942054626
:100FD00014D9067BC6F3400696B901F1100424F03B
:100FE0000704083480682146FFF77EF820B92B7B80
:100FF00043F001032B7304E02C60A860012600E09D
:101000000026304670BD037B70B51446DA070546EE
:101010000E4603D52B7B9B0705D470BD2146FFF7F9
:10102000D1FF28B9F6E795E818009C420AD21C1BAC
:101030006B68A8682246184431461BF0DBFB6B68DE
:101040001C446C6070BD037BDB0770B505460C4625
:1010500001D5002070BD01214668FFF7B3FF0028CD
:10106000F7D0B44228BF3446A968601C0844321B3C
:1010700021441BF0BFFB6B68A86801336B60204400
:1010800070BD38B504460025002914BF084601206C
:1010900020606560FEF7F8FF237BA06010B943F085
:1010A000010303E003F0FE0365F34103237338BD3E
:1010B00038B505460C460131FFF7E3FF6C6038BDDB
:1010C00000234360037B016003F0FE0343F002034F
:1010D000826003737047000038B514460546FFF779
:1010E000D0FF024B2560636038BD00BF07100208C7
:1010F000037B9B0710B5044602D48068FFF703F812
:101100000023A36010BD10B51020FEF7BDFF0446FC
:1011100010B11021FFF7B5FF204610BD10B50446F1
:1011200050B1037B9B0702D48068FEF7ECFF20469A
:10113000BDE81040FEF7E7BF10BD037B002262F35D
:101140000003426003737047007B00F001007047AA
:10115000037BDB0754BF806800207047037BDB07FD
:1011600054BF40680020704738B5037B9B07044696
:101170000D4610D4016880682944FEF7B5FF20B9F8
:10118000237B43F00103237338BD2368A0601D4413
:101190002560184438BD002038BD38B5037BDB0717
:1011A00004460D4601D5002038BDFFF70BFF00288F
:1011B000F9D06368A0681D446560184438BD037B9E
:1011C000DB0710B5044601D5002010BD90E80C00E7
:1011D0009A4205D0A26863680021D154A06810BD6E
:1011E0000121FFF7C1FF0028F4D1EDE710B50C464F
:1011F0000121FFF7D2FF00B1047010BD7F2910B5A7
:101200000C4606D80121FFF7C8FF00283FD0047024
:1012100010BDB1F5006F0DD20221FFF7BEFFB0B3D4
:10122000A30904F03F0463F03F0364F07F040370FC
:10123000447010BDB1F5803F12D20321FFF7ADFF1E
:1012400028B3230B63F01F030370C4F3851304F06A
:101250003F0463F07F0364F07F044370847010BD2B
:101260000421FFF79AFF90B1A30C63F00F03037002
:10127000C4F3053363F07F034370C4F3851304F0B4
:101280003F0463F07F0364F07F048370C47010BD7B
:1012900038B5054608460C461BF0F7FA21460246CB
:1012A0002846BDE83840FFF7AEBE10B51446FFF73C
:1012B000CAFE00B1047010BD10B51446FFF7C3FE9E
:1012C00000B1047010BD027B12F0010206D1436828
:1012D000994201D9426070475B1A43607047037BB3
:1012E000DB0770B50446154611D4426891420ED210
:1012F0004B19934201D3416070BD8668521A701831
:10130000521BF1181BF076FA6268521B626070BDC6
:1013100007B5044B00906846019300F045FA03B00E
:101320005DF804FB071002080846114620F02ABBAE
:1013300070B5064608460D461BF0A7FA044620B1D4
:1013400096E80900294622469847204670BD0000CD
:101350002DE9F74F0D9C9146A41A9DF8302012F00C
:10136000DF0F06468A4609D0302A0CAA264F0EBF48
:101370004FF0100817464FF0010802E0234F4FF0DE
:10138000100813F0800205D0022394FBF3F3E51A52
:101390001C4602E013F0010515D1002C16DDA34612
:1013A000C345DC46A8BFC446624696E809003946F4
:1013B000CDF804C09847DDF804C0CCEB0B0BBBF1B3
:1013C000000FEDDC03E02546144600E00024B9F1EF
:1013D000000F05D096E8090051464A4698474C440C
:1013E000002D0DDD2C444545A946A8BFC14696E811
:1013F000090039464A46C9EB05059847002DF2DC3D
:10140000204603B0BDE8F08FDE630508EF630508F2
:101410002DE9F04389B08046119E10989DF84890C0
:10142000139F0AB900220DE0002904DA2D228DF85D
:101430000F2049420EE0B40701D52B2202E07207CB
:10144000F0D520228DF80F2021B908AC302304F804
:10145000013D12E008ACB1FBF3F503FB1512092ABC
:10146000C6BFA0F10A0E7244303204F8012D04AA5E
:101470009442294601D9002DEDD116F040039DF884
:101480000F500DD0ADB10122CDF800900192404631
:101490000DF10F013346FFF75BFF013F054608E002
:1014A0003DB104AA944284BF04F8015C04F1FF3406
:1014B0001D4608AB1A1BCDF8009001974046214607
:1014C0003346FFF745FF284409B0BDE8F08300002C
:1014D0002DE9F04F91B093469946CA079DF86C30BC
:1014E0001A9E059382460C461C9FDDF874800BD42F
:1014F0008B0703D10968814B994205D020460CF037
:10150000F5F9400040F0010416F0810306D1059A78
:10151000302A03D14745B8BF4746984620460FF0CA
:101520002BF9002808A90BDDB50701D52B2302E014
:10153000720705D520238DF820300DF1210500E03C
:101540000D46F30622D5BBF1020F06D12B46302003
:1015500003F8020B09F1010016E0BBF1080F0AD1F4
:10156000B2054FF030032B7045BF09F10E036B70CD
:10157000013502350AE0BBF1100F07D12B463020B0
:1015800003F8020B09F1170068701D46002316F0DE
:10159000200F0CBF18462C20B8F1010F0CAAC8BFB1
:1015A00046F04006099216F0400F4FF010022B70E3
:1015B0000B938DF81F30A5EB01050A92CDF800B012
:1015C0005FFA89F315D0002201920293039023461B
:1015D00009A80AA90BAA0EF07BFF03782D2B8346DE
:1015E00015D18DF81F300B9B013B00F1010B0B93C4
:1015F0000DE00191029303900AA909A80BAA2346C2
:101600000EF066FFB8F1010F834644DC02E0B8F14A
:10161000010F64DC4FF000094C46730619D59DF8A4
:101620001F3053B1002301220093019250460DF167
:101630001F01FFF78DFE013F044455B10023012235
:1016400001920093504608A92A46FFF781FE7F1BAE
:101650000444059B0B9AB8F1010FC8BF47468DE8BB
:101660008800504659463346FFF772FE0444B9F1EC
:10167000000F09D0202300228DE80802504620499F
:101680001346FFF765FE044409980CAB984230D02E
:10169000FEF739FD2DE00B9C4445B8BF4446BC42E3
:1016A0000ADA06F00103002BA7EB040416BFA146DB
:1016B0004FF00009002402E04FF000094C4626F0EC
:1016C00001064CB1202300228DE8180050460C4939
:1016D0001346FFF73DFE0446302305939DE70B9C20
:1016E0009DF81F304445B8BF444603B101342C4433
:1016F000D5E7204611B0BDE8F08F00BF3896050849
:101700005ADD05082DE9F0438BB012F0020F0746B1
:101710000C4691469846129E05D112F0040F0CBF5C
:101720000023202300E02B23009302A8202122463F
:10173000139B09F04DFE19F4807F20EAE0750DD06F
:101740006B1C1F2B0ADC0AAA1544252205F8202C45
:101750000AAA1A44002102F8201C1D4619F0400470
:1017600012D09DF808302F2B4FF000030ED8012225
:1017700002A9009301923846FFF7EAFD013E0446B4
:10178000013D0DF1090103E002A901E002A91C4697
:10179000CDF80080019638462A464B46FFF7D8FD23
:1017A00020440BB0BDE8F0832DE9F04F804689B0AE
:1017B000914600240B461D4613F8012B4AB98D4271
:1017C0000AD96E1A98E809003246984734442946E7
:1017D00002E0252AEFD1F2E70B78002B00F016810A
:1017E00001314FF0200B00270A4611F8013BABB145
:1017F0002D2B02D147F00107F6E72B2B02D147F042
:101800000207F1E7202B02D147F00407ECE7212B78
:1018100002D147F00807E7E7302B02D04FF0000A6B
:1018200003E047F040079B46DEE7134612F8011B32
:10183000A1F13000092805D80A2303FB0A1AAAF1EE
:10184000300AF2E72E291E461CD15A782A2A02D0E5
:101850000133002207E0D9F80020023609F104051F
:1018600022EAE27211E01878A0F1300109291E463F
:1018700003F1010304D80A2101FB0202303AF2E726
:101880004D4602E04D464FF0FF3233786C2B08BFD7
:1018900001363378002B00F0B980642B7AD013D84E
:1018A000502B00F0838005D8A3F14501022940F2B6
:1018B0008B80A2E0622B17D029D8582B40F09D8056
:1018C00005F10409412374E0712B2DD004D8672B56
:1018D0007AD9702B6AD090E0752B50D0782B65D0D8
:1018E000732B40F08A8031E02B68CDF800B005F111
:1018F0000409CDF804A0404613B14649042201E092
:10190000454905223B46FFF723FD04447CE008A936
:101910002B6801F8043D05F10409CDF800B0CDF8BD
:1019200004A040460122EDE707A928680492FFF7CA
:10193000E3FA049ACDF800B00146501C05F1040901
:1019400008BF079ACDF804A04046DBE705F104097B
:101950002D6865B1531C03D128461AF096FF024644
:10196000CDF800B0CDF804A040462946CAE7CDF82E
:1019700000B0CDF804A0404628490622C2E7612302
:101980008DE88808CDF80CA005F1040940462968C7
:10199000002209E061238DE88808CDF80CA02968B1
:1019A00005F10409404601220A230AE005F1040971
:1019B00061238DE88808CDF80CA0296840460022F4
:1019C0001023FFF725FDA0E7073525F00705D5E92A
:1019D0000001059304921AF0D3FF059B049A01922B
:1019E00000EE100A1946CDF800A040463A465B4684
:1019F00005F10809FFF786FE87E798E809003146F8
:101A0000012298470134A946711CD3E6204609B04B
:101A1000BDE8F08FCC630508D1630508D7630508DE
:101A20000EB403B503AA52F8041B0192FFF7BCFEE3
:101A300002B05DF804EB03B0704703781A0613D5C3
:101A400003F07F0340221A4203D023EA0203520824
:101A5000F9E710F8012F02F0C001802904D102F04B
:101A60003F0242EA8313F4E718467047421C1046CF
:101A70000132037803F0C003802BF8D070470023B5
:101A8000814207D911F8012D02F0C002802A18BF47
:101A90000133F5E7184670470144034600208B42A6
:101AA0001A4608D2127802F0C002802A03F101031C
:101AB00018BF0130F3E770477F289DBF024B185CC9
:101AC000C0F3400000207047006405087F289DBFD8
:101AD000024B185CC0F3C00000207047006405088A
:101AE0007F289DBF024B185CC0F380000020704728
:101AF000006405087F289DBF024B185CC0F380106E
:101B000000207047006405087F2809D8064B1B5C3D
:101B100013F00C0F06D1A0F15F03584258417047F3
:101B20000020704701207047006405087F289DBF92
:101B3000024B185CC0F300100020704700640508D9
:101B40007F289DBF024B185CC0F3401000207047F7
:101B50000064050810B50446FFF7E8FF10B104F172
:101B6000200010BD204610BD10B50446FFF7E8FF69
:101B700010B1A4F1200010BD204610BD3038092856
:101B800084BF20F0200007387047F0B51C0994424C
:101B90001AD2121B01EB4401154606466DB131F80D
:101BA000024B012D84BF0F8844EA074403F00F075E
:101BB000FC4026F8024B013DF0E700EB420030F814
:101BC000023C1BB9501EF0BD0020F0BD1046F0BD18
:101BD000F0B5059F0024D21B2546BC420AD031F83F
:101BE00014E033F814607644354420F814502D0C7A
:101BF0000134F2E764000619023C214437461446DA
:101C00003CB131F8023F1D4427F8025B013C2D0C2A
:101C1000F6E706EB42031DB1012126F8121002334C
:101C2000181A4010F0BDF0B5059F0024D21B2546C0
:101C3000BC420AD031F81460354433F81460AD1B4F
:101C400020F814502D140134F2E764000319023C0B
:101C5000214416461F463EB131F8024F254427F86D
:101C6000025B013E2D14F6E703EB4202023A824288
:101C7000134603D31988023A0029F8D00233181A00
:101C80004010F0BD023981420B4603D31A88023955
:101C9000002AF8D00233181A401070472DE9F0439B
:101CA0009E4608AB93E82802DDF81C80561E0239D8
:101CB0008446741C22D031F8027FC2EB08043444FD
:101CC00007F57F47B44207F1FF072F449DBFBEF8D9
:101CD000005005F57F44FF344FF6FF744C4484EA0E
:101CE000070513FA85F32CF8023B98BF0EF1020E9C
:101CF0004FEA14493D0C1B0C013EDAE700EB4201B0
:101D000013B120F812300231BDE8F043FFF7BABF3B
:101D100010B5044638B18068FEF7F5F92046BDE8F5
:101D20001040FEF7F0B910BD38B5044680680129AF
:101D30008CBF0D46022518B12368B5EB930F0AD965
:101D400023789B0707D46900FEF7CEF92368A060CB
:101D500065F39F03236038BD38B505460C20FEF7B8
:101D600093F92A78037862F300036FF34103044682
:101D7000037028682368C0F39D0060F39F0323600D
:101D80006B686360AB680BB9A3600AE04000FEF7C4
:101D90007BF9A0602A68A968C2F39D0252001AF07C
:101DA000FDFC204638BD10B54B0018441A4449B11B
:101DB00030F8023D32F8024D1B1B002B04DB06D12C
:101DC0000139F4E7084610BD4FF0FF3010BD012087
:101DD00010BD38B505460C460221FFF7A5FF2B784C
:101DE000002CB5BF43F001036FF300032B702B7081
:101DF0004FF00003B4BF614221466B6039B16B689C
:101E0000AA68581C686022F81310090CF6E738BD60
:101E1000037803F0FE036FF34103037003686FF36D
:101E20009F030360002343608360704728B10378F9
:101E30009B0702D48068FEF766B9704738B505463F
:101E40000C464968FFF770FF22782B78A868A168D4
:101E500062F300032B7063686B606268BDE8384012
:101E600052001AF09BBC034609B959607047FFF74E
:101E7000B0BF38B505460C46FFF7CAFF28462146D5
:101E8000BDE83840FFF7EFBF30B50578816005F059
:101E9000FE0545F002050570056862F39F05002206
:101EA000056042601946BDE83040FFF7DCBF70B501
:101EB0000421064614461D46FFF736FF9DF8102004
:101EC000337852B1002C75F1000206DA43F00103B9
:101ED0006242337065EB450304E06FF30003337037
:101EE00022462B460021716052EA03010CD0716832
:101EF000B0684C1C746020F81120110C41EA0341B9
:101F0000180C0A460346EFE770BD2DE9F04110EECC
:101F1000105A0378EA0F62F300030370C5F30F430E
:101F200013F4FF43804604D10023C8F80430BDE811
:101F3000F081B3F5FF4FF7D0C5F3C753A3F17F0688
:101F4000002EF1DB04D10121BDE8F041FFF741BFD4
:101F5000162ED8BF0026C5F31605A3F16F074FF064
:101F60001004D8BFC3F1960397FBF4F7C8BF093636
:101F700045F40005D8BF34463946C9BF963BDD401D
:101F800006F00F0693FBF4F4FFF7CEFEC8F80470DA
:101F90002CB1D8F80800002162001AF042FC4EB1C2
:101FA000D8F8083005FA06F2C6F1100623F8142016
:101FB000F540013464007F00BC4205D0D8F80830F9
:101FC0001D532D0C0234F7E7BDE8F0812DE9F843ED
:101FD0008F1804460E46C2F35B0198460131089DF6
:101FE000FFF7A2FE2278B8F1000F02D042F0010202
:101FF00001E068F300020023227063603146B942B9
:10200000084631D20278A2F13003092B01F1010117
:102010000CD9A2F14103192B02D8A2F1370305E034
:10202000A2F16103192B1FD8A2F15703AB421BD2B7
:10203000A068D4F804E09BB27246844652B1BCF862
:1020400000801FFA85F909FB08332CF8023B013A9E
:102050001B0CF3E700EB4E0213B120F81E300232E6
:10206000121A52106260CAE7801BBDE8F88340680C
:10207000B0FA80F04009704738B544680CB94B6835
:10208000CBB10B78057803F0010305F001029B1A30
:1020900011D14B6880688A689C4204D306D82146D7
:1020A000FFF781FE03E04FF0FF3000E00120EB0777
:1020B00002D5404238BD184638BD884210B50446A6
